{
  "_format": "hh-sol-artifact-1",
  "contractName": "MonadPhasedNFT",
  "sourceName": "contracts/MonadPhasedNFT.sol",
  "abi": [
    {
      "inputs": [
        {
          "internalType": "string",
          "name": "name_",
          "type": "string"
        },
        {
          "internalType": "string",
          "name": "symbol_",
          "type": "string"
        },
        {
          "internalType": "string",
          "name": "baseURI_",
          "type": "string"
        },
        {
          "internalType": "string",
          "name": "contractURI_",
          "type": "string"
        },
        {
          "internalType": "address",
          "name": "royaltyReceiver_",
          "type": "address"
        },
        {
          "internalType": "uint96",
          "name": "royaltyBps_",
          "type": "uint96"
        },
        {
          "internalType": "address",
          "name": "initialOwner_",
          "type": "address"
        }
      ],
      "stateMutability": "nonpayable",
      "type": "constructor"
    },
    {
      "inputs": [
        {
          "internalType": "uint256",
          "name": "numerator",
          "type": "uint256"
        },
        {
          "internalType": "uint256",
          "name": "denominator",
          "type": "uint256"
        }
      ],
      "name": "ERC2981InvalidDefaultRoyalty",
      "type": "error"
    },
    {
      "inputs": [
        {
          "internalType": "address",
          "name": "receiver",
          "type": "address"
        }
      ],
      "name": "ERC2981InvalidDefaultRoyaltyReceiver",
      "type": "error"
    },
    {
      "inputs": [
        {
          "internalType": "uint256",
          "name": "tokenId",
          "type": "uint256"
        },
        {
          "internalType": "uint256",
          "name": "numerator",
          "type": "uint256"
        },
        {
          "internalType": "uint256",
          "name": "denominator",
          "type": "uint256"
        }
      ],
      "name": "ERC2981InvalidTokenRoyalty",
      "type": "error"
    },
    {
      "inputs": [
        {
          "internalType": "uint256",
          "name": "tokenId",
          "type": "uint256"
        },
        {
          "internalType": "address",
          "name": "receiver",
          "type": "address"
        }
      ],
      "name": "ERC2981InvalidTokenRoyaltyReceiver",
      "type": "error"
    },
    {
      "inputs": [
        {
          "internalType": "address",
          "name": "sender",
          "type": "address"
        },
        {
          "internalType": "uint256",
          "name": "tokenId",
          "type": "uint256"
        },
        {
          "internalType": "address",
          "name": "owner",
          "type": "address"
        }
      ],
      "name": "ERC721IncorrectOwner",
      "type": "error"
    },
    {
      "inputs": [
        {
          "internalType": "address",
          "name": "operator",
          "type": "address"
        },
        {
          "internalType": "uint256",
          "name": "tokenId",
          "type": "uint256"
        }
      ],
      "name": "ERC721InsufficientApproval",
      "type": "error"
    },
    {
      "inputs": [
        {
          "internalType": "address",
          "name": "approver",
          "type": "address"
        }
      ],
      "name": "ERC721InvalidApprover",
      "type": "error"
    },
    {
      "inputs": [
        {
          "internalType": "address",
          "name": "operator",
          "type": "address"
        }
      ],
      "name": "ERC721InvalidOperator",
      "type": "error"
    },
    {
      "inputs": [
        {
          "internalType": "address",
          "name": "owner",
          "type": "address"
        }
      ],
      "name": "ERC721InvalidOwner",
      "type": "error"
    },
    {
      "inputs": [
        {
          "internalType": "address",
          "name": "receiver",
          "type": "address"
        }
      ],
      "name": "ERC721InvalidReceiver",
      "type": "error"
    },
    {
      "inputs": [
        {
          "internalType": "address",
          "name": "sender",
          "type": "address"
        }
      ],
      "name": "ERC721InvalidSender",
      "type": "error"
    },
    {
      "inputs": [
        {
          "internalType": "uint256",
          "name": "tokenId",
          "type": "uint256"
        }
      ],
      "name": "ERC721NonexistentToken",
      "type": "error"
    },
    {
      "inputs": [],
      "name": "EnforcedPause",
      "type": "error"
    },
    {
      "inputs": [],
      "name": "ExpectedPause",
      "type": "error"
    },
    {
      "inputs": [
        {
          "internalType": "address",
          "name": "owner",
          "type": "address"
        }
      ],
      "name": "OwnableInvalidOwner",
      "type": "error"
    },
    {
      "inputs": [
        {
          "internalType": "address",
          "name": "account",
          "type": "address"
        }
      ],
      "name": "OwnableUnauthorizedAccount",
      "type": "error"
    },
    {
      "inputs": [],
      "name": "ReentrancyGuardReentrantCall",
      "type": "error"
    },
    {
      "anonymous": false,
      "inputs": [
        {
          "indexed": true,
          "internalType": "address",
          "name": "owner",
          "type": "address"
        },
        {
          "indexed": true,
          "internalType": "address",
          "name": "approved",
          "type": "address"
        },
        {
          "indexed": true,
          "internalType": "uint256",
          "name": "tokenId",
          "type": "uint256"
        }
      ],
      "name": "Approval",
      "type": "event"
    },
    {
      "anonymous": false,
      "inputs": [
        {
          "indexed": true,
          "internalType": "address",
          "name": "owner",
          "type": "address"
        },
        {
          "indexed": true,
          "internalType": "address",
          "name": "operator",
          "type": "address"
        },
        {
          "indexed": false,
          "internalType": "bool",
          "name": "approved",
          "type": "bool"
        }
      ],
      "name": "ApprovalForAll",
      "type": "event"
    },
    {
      "anonymous": false,
      "inputs": [
        {
          "indexed": true,
          "internalType": "address",
          "name": "previousOwner",
          "type": "address"
        },
        {
          "indexed": true,
          "internalType": "address",
          "name": "newOwner",
          "type": "address"
        }
      ],
      "name": "OwnershipTransferred",
      "type": "event"
    },
    {
      "anonymous": false,
      "inputs": [
        {
          "indexed": false,
          "internalType": "address",
          "name": "account",
          "type": "address"
        }
      ],
      "name": "Paused",
      "type": "event"
    },
    {
      "anonymous": false,
      "inputs": [
        {
          "indexed": true,
          "internalType": "address",
          "name": "from",
          "type": "address"
        },
        {
          "indexed": true,
          "internalType": "address",
          "name": "to",
          "type": "address"
        },
        {
          "indexed": true,
          "internalType": "uint256",
          "name": "tokenId",
          "type": "uint256"
        }
      ],
      "name": "Transfer",
      "type": "event"
    },
    {
      "anonymous": false,
      "inputs": [
        {
          "indexed": false,
          "internalType": "address",
          "name": "account",
          "type": "address"
        }
      ],
      "name": "Unpaused",
      "type": "event"
    },
    {
      "inputs": [],
      "name": "MAX_SUPPLY",
      "outputs": [
        {
          "internalType": "uint256",
          "name": "",
          "type": "uint256"
        }
      ],
      "stateMutability": "view",
      "type": "function"
    },
    {
      "inputs": [
        {
          "internalType": "address",
          "name": "to",
          "type": "address"
        },
        {
          "internalType": "uint256",
          "name": "tokenId",
          "type": "uint256"
        }
      ],
      "name": "approve",
      "outputs": [],
      "stateMutability": "nonpayable",
      "type": "function"
    },
    {
      "inputs": [
        {
          "internalType": "address",
          "name": "",
          "type": "address"
        }
      ],
      "name": "authorizedMinters",
      "outputs": [
        {
          "internalType": "bool",
          "name": "",
          "type": "bool"
        }
      ],
      "stateMutability": "view",
      "type": "function"
    },
    {
      "inputs": [
        {
          "internalType": "address",
          "name": "owner",
          "type": "address"
        }
      ],
      "name": "balanceOf",
      "outputs": [
        {
          "internalType": "uint256",
          "name": "",
          "type": "uint256"
        }
      ],
      "stateMutability": "view",
      "type": "function"
    },
    {
      "inputs": [],
      "name": "contractURI",
      "outputs": [
        {
          "internalType": "string",
          "name": "",
          "type": "string"
        }
      ],
      "stateMutability": "view",
      "type": "function"
    },
    {
      "inputs": [
        {
          "internalType": "uint256",
          "name": "tokenId",
          "type": "uint256"
        }
      ],
      "name": "getApproved",
      "outputs": [
        {
          "internalType": "address",
          "name": "",
          "type": "address"
        }
      ],
      "stateMutability": "view",
      "type": "function"
    },
    {
      "inputs": [
        {
          "internalType": "address",
          "name": "owner",
          "type": "address"
        },
        {
          "internalType": "address",
          "name": "operator",
          "type": "address"
        }
      ],
      "name": "isApprovedForAll",
      "outputs": [
        {
          "internalType": "bool",
          "name": "",
          "type": "bool"
        }
      ],
      "stateMutability": "view",
      "type": "function"
    },
    {
      "inputs": [
        {
          "internalType": "uint8",
          "name": "id",
          "type": "uint8"
        },
        {
          "internalType": "address",
          "name": "to",
          "type": "address"
        },
        {
          "internalType": "bytes32[]",
          "name": "proof",
          "type": "bytes32[]"
        }
      ],
      "name": "mintBySwap",
      "outputs": [
        {
          "internalType": "uint256",
          "name": "",
          "type": "uint256"
        }
      ],
      "stateMutability": "nonpayable",
      "type": "function"
    },
    {
      "inputs": [
        {
          "internalType": "uint8",
          "name": "",
          "type": "uint8"
        },
        {
          "internalType": "address",
          "name": "",
          "type": "address"
        }
      ],
      "name": "mintedPerPhase",
      "outputs": [
        {
          "internalType": "bool",
          "name": "",
          "type": "bool"
        }
      ],
      "stateMutability": "view",
      "type": "function"
    },
    {
      "inputs": [],
      "name": "name",
      "outputs": [
        {
          "internalType": "string",
          "name": "",
          "type": "string"
        }
      ],
      "stateMutability": "view",
      "type": "function"
    },
    {
      "inputs": [],
      "name": "owner",
      "outputs": [
        {
          "internalType": "address",
          "name": "",
          "type": "address"
        }
      ],
      "stateMutability": "view",
      "type": "function"
    },
    {
      "inputs": [
        {
          "internalType": "uint256",
          "name": "tokenId",
          "type": "uint256"
        }
      ],
      "name": "ownerOf",
      "outputs": [
        {
          "internalType": "address",
          "name": "",
          "type": "address"
        }
      ],
      "stateMutability": "view",
      "type": "function"
    },
    {
      "inputs": [],
      "name": "pause",
      "outputs": [],
      "stateMutability": "nonpayable",
      "type": "function"
    },
    {
      "inputs": [],
      "name": "paused",
      "outputs": [
        {
          "internalType": "bool",
          "name": "",
          "type": "bool"
        }
      ],
      "stateMutability": "view",
      "type": "function"
    },
    {
      "inputs": [
        {
          "internalType": "uint256",
          "name": "",
          "type": "uint256"
        }
      ],
      "name": "phases",
      "outputs": [
        {
          "internalType": "uint256",
          "name": "price",
          "type": "uint256"
        },
        {
          "internalType": "bytes32",
          "name": "root",
          "type": "bytes32"
        },
        {
          "internalType": "uint32",
          "name": "cap",
          "type": "uint32"
        },
        {
          "internalType": "uint32",
          "name": "minted",
          "type": "uint32"
        },
        {
          "internalType": "bool",
          "name": "active",
          "type": "bool"
        }
      ],
      "stateMutability": "view",
      "type": "function"
    },
    {
      "inputs": [],
      "name": "renounceOwnership",
      "outputs": [],
      "stateMutability": "nonpayable",
      "type": "function"
    },
    {
      "inputs": [
        {
          "internalType": "uint256",
          "name": "tokenId",
          "type": "uint256"
        },
        {
          "internalType": "uint256",
          "name": "salePrice",
          "type": "uint256"
        }
      ],
      "name": "royaltyInfo",
      "outputs": [
        {
          "internalType": "address",
          "name": "receiver",
          "type": "address"
        },
        {
          "internalType": "uint256",
          "name": "amount",
          "type": "uint256"
        }
      ],
      "stateMutability": "view",
      "type": "function"
    },
    {
      "inputs": [
        {
          "internalType": "address",
          "name": "from",
          "type": "address"
        },
        {
          "internalType": "address",
          "name": "to",
          "type": "address"
        },
        {
          "internalType": "uint256",
          "name": "tokenId",
          "type": "uint256"
        }
      ],
      "name": "safeTransferFrom",
      "outputs": [],
      "stateMutability": "nonpayable",
      "type": "function"
    },
    {
      "inputs": [
        {
          "internalType": "address",
          "name": "from",
          "type": "address"
        },
        {
          "internalType": "address",
          "name": "to",
          "type": "address"
        },
        {
          "internalType": "uint256",
          "name": "tokenId",
          "type": "uint256"
        },
        {
          "internalType": "bytes",
          "name": "data",
          "type": "bytes"
        }
      ],
      "name": "safeTransferFrom",
      "outputs": [],
      "stateMutability": "nonpayable",
      "type": "function"
    },
    {
      "inputs": [
        {
          "internalType": "address",
          "name": "operator",
          "type": "address"
        },
        {
          "internalType": "bool",
          "name": "approved",
          "type": "bool"
        }
      ],
      "name": "setApprovalForAll",
      "outputs": [],
      "stateMutability": "nonpayable",
      "type": "function"
    },
    {
      "inputs": [
        {
          "internalType": "string",
          "name": "u",
          "type": "string"
        }
      ],
      "name": "setBaseURI",
      "outputs": [],
      "stateMutability": "nonpayable",
      "type": "function"
    },
    {
      "inputs": [
        {
          "internalType": "string",
          "name": "u",
          "type": "string"
        }
      ],
      "name": "setContractURI",
      "outputs": [],
      "stateMutability": "nonpayable",
      "type": "function"
    },
    {
      "inputs": [
        {
          "internalType": "uint8",
          "name": "id",
          "type": "uint8"
        },
        {
          "internalType": "uint256",
          "name": "price",
          "type": "uint256"
        },
        {
          "internalType": "bytes32",
          "name": "root",
          "type": "bytes32"
        },
        {
          "internalType": "uint32",
          "name": "cap",
          "type": "uint32"
        },
        {
          "internalType": "bool",
          "name": "active",
          "type": "bool"
        }
      ],
      "name": "setPhase",
      "outputs": [],
      "stateMutability": "nonpayable",
      "type": "function"
    },
    {
      "inputs": [
        {
          "internalType": "address",
          "name": "swapMint",
          "type": "address"
        }
      ],
      "name": "setSaleContract",
      "outputs": [],
      "stateMutability": "nonpayable",
      "type": "function"
    },
    {
      "inputs": [
        {
          "internalType": "bytes4",
          "name": "x",
          "type": "bytes4"
        }
      ],
      "name": "supportsInterface",
      "outputs": [
        {
          "internalType": "bool",
          "name": "",
          "type": "bool"
        }
      ],
      "stateMutability": "view",
      "type": "function"
    },
    {
      "inputs": [],
      "name": "symbol",
      "outputs": [
        {
          "internalType": "string",
          "name": "",
          "type": "string"
        }
      ],
      "stateMutability": "view",
      "type": "function"
    },
    {
      "inputs": [
        {
          "internalType": "uint256",
          "name": "tokenId",
          "type": "uint256"
        }
      ],
      "name": "tokenURI",
      "outputs": [
        {
          "internalType": "string",
          "name": "",
          "type": "string"
        }
      ],
      "stateMutability": "view",
      "type": "function"
    },
    {
      "inputs": [
        {
          "internalType": "address",
          "name": "from",
          "type": "address"
        },
        {
          "internalType": "address",
          "name": "to",
          "type": "address"
        },
        {
          "internalType": "uint256",
          "name": "tokenId",
          "type": "uint256"
        }
      ],
      "name": "transferFrom",
      "outputs": [],
      "stateMutability": "nonpayable",
      "type": "function"
    },
    {
      "inputs": [
        {
          "internalType": "address",
          "name": "newOwner",
          "type": "address"
        }
      ],
      "name": "transferOwnership",
      "outputs": [],
      "stateMutability": "nonpayable",
      "type": "function"
    },
    {
      "inputs": [],
      "name": "unpause",
      "outputs": [],
      "stateMutability": "nonpayable",
      "type": "function"
    }
  ],
  "bytecode": "0x60406080815234620006e25762002556803803806200001e81620006e7565b928339810160e082820312620006e25781516001600160401b039290838111620006e25782620000509183016200070d565b90602080820151858111620006e257846200006d9184016200070d565b86830151868111620006e25785620000879185016200070d565b94606084015190878211620006e257620000a39185016200070d565b620000b1608085016200077f565b60a0850151956001600160601b03871695868803620006e25760c0620000d891016200077f565b9281518a8111620006cc576000958654916001948584811c94168015620006c1575b8a851014620004e4578190601f948581116200066e575b508a9085831160011462000609578a92620005fd575b5050600019600383901b1c191690851b1787555b8051908c8211620005035784548581811c91168015620005f2575b8a821014620004e4579081848493116200059f575b5089908483116001146200053b5789926200052f575b5050600019600383901b1c191690841b1783555b6001600160a01b03948516998a156200051757600880546001600160a01b03198082168e17909255909b9087167f8be0079c531659141344cd1fd0a4f28419497f9722a3daafe3b4186f6b6457e08980a3836009558051908c821162000503576016548581811c91168015620004f8575b8a821014620004e45790818484931162000490575b5089908483116001146200042a5789926200041e575b5050600019600383901b1c191690841b176016555b8151918b83116200040a576017548481811c91168015620003ff575b89821014620003eb57828111620003a2575b50879183116001146200033c57928293918392889462000330575b50501b916000199060031b1c1916176017555b61271080861162000313575016958615620002fb5787519182890191821183831017620002e757508752858152015260a01b161760065551611dc19081620007958239f35b634e487b7160e01b81526041600452602490fd5b8751635b6cc80560e11b815260048101839052602490fd5b856044918b5191636f483d0960e01b835260048301526024820152fd5b0151925038806200028f565b60178752878720919083601f198116895b8b888383106200038a575050501062000370575b505050811b01601755620002a2565b015160001960f88460031b161c1916905538808062000361565b8686015188559096019594850194879350016200034d565b601788528888208380860160051c8201928b8710620003e1575b0160051c019085905b828110620003d557505062000274565b898155018590620003c5565b92508192620003bc565b634e487b7160e01b88526022600452602488fd5b90607f169062000262565b634e487b7160e01b87526041600452602487fd5b01519050388062000231565b60168a528a8a208794509190601f1984168b5b8d8282106200047957505084116200045f575b505050811b0160165562000246565b015160001960f88460031b161c1916905538808062000450565b8385015186558a979095019493840193016200043d565b909150601689528989208480850160051c8201928c8610620004da575b918891869594930160051c01915b828110620004cb5750506200021b565b8b8155859450889101620004bb565b92508192620004ad565b634e487b7160e01b89526022600452602489fd5b90607f169062000206565b634e487b7160e01b88526041600452602488fd5b8c51631e4fbdf760e01b815260048101889052602490fd5b01519050388062000181565b868a528a8a208794509190601f1984168b5b8d8282106200058857505084116200056e575b505050811b01835562000195565b015160001960f88460031b161c1916905538808062000560565b8385015186558a979095019493840193016200054d565b9091508589528989208480850160051c8201928c8610620005e8575b918891869594930160051c01915b828110620005d95750506200016b565b8b8155859450889101620005c9565b92508192620005bb565b90607f169062000156565b01519050388062000127565b8a80528b8b208894509190601f1984168c8e5b8282106200065657505084116200063c575b505050811b0187556200013b565b015160001960f88460031b161c191690553880806200062e565b8385015186558b979095019493840193018e6200061c565b9091508980528a8a208580850160051c8201928d8610620006b7575b918991869594930160051c01915b828110620006a857505062000111565b8c815585945089910162000698565b925081926200068a565b93607f1693620000fa565b634e487b7160e01b600052604160045260246000fd5b600080fd5b6040519190601f01601f191682016001600160401b03811183821017620006cc57604052565b919080601f84011215620006e25782516001600160401b038111620006cc5760209062000743601f8201601f19168301620006e7565b92818452828287010111620006e25760005b8181106200076b57508260009394955001015290565b858101830151848201840152820162000755565b51906001600160a01b0382168203620006e25756fe6080806040526004908136101561001557600080fd5b60003560e01c90816301ffc9a7146117d7575080630593d2441461175c57806306fdde03146116b1578063081812fc14611675578063095ea7b31461158c578063117d58b11461153657806323b872dd1461151f5780632a55205a1461148d5780632e37eef61461142857806332cb6b0c1461140c5780633f4ba83a146113a257806342842e0e1461137457806355f804b3146112215780635c975abb146111fe5780636352211e146111ce57806370a0823114611173578063715018a6146111165780637281991e14610fca5780638456cb5914610f5e5780638c3aedcb146109a85780638da5cb5b1461097f578063938e3d7b1461081757806395d89b4114610769578063a22cb465146106c3578063aa2fe91b14610684578063b88d4fde146105ee578063c87b56dd14610336578063e8a3d4851461024f578063e985e9c5146101f95763f2fde38b1461016b57600080fd5b346101f45760203660031901126101f45761018461185b565b61018c611bfe565b6001600160a01b039081169182156101dc5750600854826001600160601b0360a01b821617600855167f8be0079c531659141344cd1fd0a4f28419497f9722a3daafe3b4186f6b6457e0600080a3005b602490600060405191631e4fbdf760e01b8352820152fd5b600080fd5b346101f45760403660031901126101f45761021261185b565b61021a611871565b9060018060a01b03809116600052600560205260406000209116600052602052602060ff604060002054166040519015158152f35b346101f45760003660031901126101f457604051601754600082610272836119ea565b91828252602093600190856001821691826000146103165750506001146102b9575b506102a1925003836119ac565b6102b56040519282849384528301906118aa565b0390f35b84915060176000527fc624b66cc0138b8fabc209247f72d758e1cf3343756d543badbf24212bed8c15906000915b8583106102fe5750506102a1935082010185610294565b805483890185015287945086939092019181016102e7565b60ff1916858201526102a195151560051b85010192508791506102949050565b50346101f457602090816003193601126101f4578181359161035783611c2a565b506040519060006016549161036b836119ea565b8085528486810193600195886001821691826000146105d3575050600114610575575b61039a925003856119ac565b835115610559578586916000977a184f03e93ff9f4daa797ed6e38ed64bf6a1f010000000000000000908181101561054b575b50506d04ee2d6d415b85acef81000000008084101561053d575b50662386f26fc100008084101561052e575b506305f5e1008084101561051f575b5061271080841015610511575b50506064821015610501575b600a809210156104f7575b926001870193816021610457610441886119ce565b9761044f604051998a6119ac565b8089526119ce565b878a019a90601f1901368c37870101905b6104c1575b50505050936104ac9392916104a06104919660405197889551809288880190611887565b84019151809386840190611887565b010380845201826119ac565b906102b56040519282849384528301906118aa565b600019019083906f181899199a1a9b1b9c1cb0b131b232b360811b8282061a8353049182156104f257919082610468565b61046d565b956001019561042c565b9590606460029104910195610421565b970196909104903880610415565b60089198930492019638610408565b601091989304920196386103f9565b8791989304920196386103e7565b6040995004925038806103cd565b50505050505060405161056b8161195e565b60008152906102a1565b5050601660005284867fd833147d7dc355ba459fc788f669e58cfaf9dc25ddcd0702e87d69c7b5124289866000915b8583106105ba57505061039a935082010161038e565b80919294505483858b01015201910187908688936105a4565b60ff1916875261039a94151560051b840101915061038e9050565b50346101f45760803660031901126101f45761060861185b565b610610611871565b604435906064359367ffffffffffffffff85116101f457366023860112156101f4578401359261063f846119ce565b9361064d60405195866119ac565b80855236602482880101116101f45760208160009260246106829901838901378601015261067c838383611a24565b33611c65565b005b346101f45760203660031901126101f4576001600160a01b036106a561185b565b166000526018602052602060ff604060002054166040519015158152f35b50346101f45760403660031901126101f4576106dd61185b565b602435908115158092036101f4576001600160a01b03169182156107515750336000526005602052604060002082600052602052604060002060ff1981541660ff83161790556040519081527f17307eab39ab6107e8899845ad3d59bd9653f200f220920489ca2b5937696c3160203392a3005b604051630b61174360e31b8152908101839052602490fd5b346101f45760003660031901126101f45760405160006001826001549261078f846119ea565b92838352602094856001821691826000146103165750506001146107ba57506102a1925003836119ac565b84915060016000527fb10e2d527612073b26eecdfd717e6a320cf44b4afac2b0732d9fcbe2b7fa0cf6906000915b8583106107ff5750506102a1935082010185610294565b805483890185015287945086939092019181016107e8565b50346101f45761082636611914565b9091610830611bfe565b67ffffffffffffffff821161096a575061084b6017546119ea565b601f811161090a575b506000601f8211600114610890578192600092610885575b5050600019600383901b1c191660019190911b17601755005b01359050388061086c565b601f198216927fc624b66cc0138b8fabc209247f72d758e1cf3343756d543badbf24212bed8c159160005b8581106108f2575083600195106108d8575b505050811b01601755005b0135600019600384901b60f8161c191690553880806108cd565b909260206001819286860135815501940191016108bb565b7fc624b66cc0138b8fabc209247f72d758e1cf3343756d543badbf24212bed8c15601f830160051c81019160208410610960575b601f0160051c01905b8181106109545750610854565b60008155600101610947565b909150819061093e565b604190634e487b7160e01b6000525260246000fd5b346101f45760003660031901126101f4576008546040516001600160a01b039091168152602090f35b50346101f45760603660031901126101f4576109c26118cf565b6109ca611871565b9067ffffffffffffffff80604435116101f4573660236044350112156101f457604435840135116101f457366044358481013560051b01602401116101f457600260095414610f4d576002600955610a27600360ff831610611bc6565b33600052601860205260ff6040600020541615610f1c576003811015610f07576003810290600e82015460ff8160401c1615610ed45760ff82166000526015602052604060002060018060a01b03851660005260205260ff60406000205416610ea65763ffffffff8082169160201c161015610e7157600d82015480610da2575b5060ff1660009081526015602090815260408083206001600160a01b03861684528252909120805460ff19166001908117909155600e909201805467ffffffff0000000019811690831c63ffffffff1690930190911b67ffffffff0000000016919091179055600b54604051610b1d8161195e565b600081526001600160a01b03831615610d8a576000828152600260205260409020546001600160a01b031680151590839082610d53575b6001600160a01b0386166000818152600360209081526040808320805460010190558583526002909152812080546001600160a01b031916831790559091907fddf252ad1be2c89b69c2b068fc378daa952ba7f163c4a11628f55a4df523b3ef9080a4610d3b57823b610bfe575b505050600b54906000198214610be95760208260018101600b556001600955604051908152f35b601190634e487b7160e01b6000525260246000fd5b6020610c399160405180938192630a85bd0160e11b96878452338a8501526000602485015260448401526080606484015260848301906118aa565b038160006001600160a01b0388165af160009181610cf6575b50610cba5750503d15610cb2573d91610c6a836119ce565b92610c7860405194856119ac565b83523d6000602085013e5b82519283610cab57604051633250574960e11b81526001600160a01b03841681840152602490fd5b8390602001fd5b606091610c83565b6001600160e01b03191603610cd25750388080610bc2565b604051633250574960e11b81526001600160a01b0390911691810191909152602490fd5b9091506020813d602011610d33575b81610d12602093836119ac565b810103126101f457516001600160e01b0319811681036101f4579038610c52565b3d9150610d05565b6040516339e3563760e11b8152600081860152602490fd5b600082815260046020526040902080546001600160a01b031916905580600052600360205260406000206000198154019055610b54565b604051633250574960e11b8152600081860152602490fd5b6040516001600160a01b0385166020808301918252825290610dc381611990565b5190206040516020810191825260208152610ddd81611990565b51902060005b6044358701358110610e31575003610dfb5738610aa8565b60405162461bcd60e51b8152602081860152600f60248201526e1b9bdd081dda1a5d195b1a5cdd1959608a1b6044820152606490fd5b9060248260051b60443501013590818110600014610e5e57600052602052600160406000205b9101610de3565b9060005260205260016040600020610e57565b60405162461bcd60e51b8152602081860152600e60248201526d1c1a185cd9481cdbdb19081bdd5d60921b6044820152606490fd5b60405162461bcd60e51b81526020818701526007602482015266616c726561647960c81b6044820152606490fd5b60405162461bcd60e51b8152602081870152600c60248201526b1c1a185cd94818db1bdcd95960a21b6044820152606490fd5b603283634e487b7160e01b6000525260246000fd5b60405162461bcd60e51b8152602081850152600a6024820152693737ba1036b4b73a32b960b11b6044820152606490fd5b604051633ee5aeb560e01b81528390fd5b50346101f45760003660031901126101f457610f78611bfe565b600a5460ff8116610fba5760019060ff191617600a557f62e78cea01bee320cd4e420270b5ea74000d11b0c9f74754ebdbfc544b05a2586020604051338152a1005b5060405163d93c066560e01b8152fd5b50346101f45760a03660031901126101f457610fe46118cf565b6064359063ffffffff8083168093036101f457608435918215158093036101f45761100d611bfe565b61101c600360ff831610611bc6565b609684116110e45760038110156110cf57600302600e81019384549160405167ffffffffffffffff60a082019182109111176110ba57602435600c820155604435600d9091015567ffffffff00000000191667ffffffffffffffff19821617602091821c92909216901b67ffffffff0000000016178255909150815468ff0000000000000000191660409190911b68ff000000000000000016179055005b604187634e487b7160e01b6000525260246000fd5b603285634e487b7160e01b6000525260246000fd5b60405162461bcd60e51b8152602081870152600b60248201526a63617020746f6f2062696760a81b6044820152606490fd5b346101f45760003660031901126101f45761112f611bfe565b600880546001600160a01b031981169091556000906001600160a01b03167f8be0079c531659141344cd1fd0a4f28419497f9722a3daafe3b4186f6b6457e08280a3005b50346101f45760203660031901126101f4576001600160a01b0361119561185b565b169081156111b6575060005260036020526020604060002054604051908152f35b6024906000604051916322718ad960e21b8352820152fd5b50346101f45760203660031901126101f4576111ec60209135611c2a565b6040516001600160a01b039091168152f35b346101f45760003660031901126101f457602060ff600a54166040519015158152f35b50346101f45761123036611914565b909161123a611bfe565b67ffffffffffffffff821161096a57506112556016546119ea565b601f8111611314575b506000601f821160011461129a57819260009261128f575b5050600019600383901b1c191660019190911b17601655005b013590503880611276565b601f198216927fd833147d7dc355ba459fc788f669e58cfaf9dc25ddcd0702e87d69c7b51242899160005b8581106112fc575083600195106112e2575b505050811b01601655005b0135600019600384901b60f8161c191690553880806112d7565b909260206001819286860135815501940191016112c5565b7fd833147d7dc355ba459fc788f669e58cfaf9dc25ddcd0702e87d69c7b5124289601f830160051c8101916020841061136a575b601f0160051c01905b81811061135e575061125e565b60008155600101611351565b9091508190611348565b346101f457610682611385366118df565b90604051926113938461195e565b6000845261067c838383611a24565b50346101f45760003660031901126101f4576113bc611bfe565b600a549060ff8216156113fd575060ff1916600a557f5db9ee0a495bf2e6ff9c91a7834c1ba4fdd244a5e8aa4e537bd38aeae4b073aa6020604051338152a1005b604051638dfc202b60e01b8152fd5b346101f45760003660031901126101f457602060405160968152f35b50346101f45760203660031901126101f4573560038110156101f457600360a0910260ff81600c015491600e600d8201549101549063ffffffff90604051948552602085015280821660408501528160201c16606084015260401c1615156080820152f35b50346101f45760403660031901126101f457602435813560005260076020526040600020549160018060a01b038084169360a01c908415611505575b506001600160601b031691828102928184041490151715610be95750604080516001600160a01b03939093168352612710909104602083015290f35b600654908116945060a01c90506001600160601b036114c9565b346101f457610682611530366118df565b91611a24565b346101f45760403660031901126101f45761154f6118cf565b60ff611559611871565b9116600052601560205260406000209060018060a01b0316600052602052602060ff604060002054166040519015158152f35b50346101f45760403660031901126101f4576115a661185b565b906024356115b381611c2a565b33151580611662575b80611635575b61161e576001600160a01b039384169382918591167f8c5be1e5ebec7d5bd14f71427d1e84f3dd0314c0f7b2291e5b200ac8c7c3b925600080a46000526020526040600020906001600160601b0360a01b825416179055600080f35b60405163a9fbf51f60e01b81523381850152602490fd5b5060018060a01b038116600052600560205260406000203360005260205260ff60406000205416156115c2565b506001600160a01b0381163314156115bc565b50346101f45760203660031901126101f457803561169281611c2a565b50600052602052602060018060a01b0360406000205416604051908152f35b346101f45760003660031901126101f4576040516000805490826116d4836119ea565b918282526020936001908560018216918260001461031657505060011461170257506102a1925003836119ac565b6000808052859250907f290decd9548b62a8d60345a988386fc84ba6bc95484008f6362f93160ef3e5635b8583106117445750506102a1935082010185610294565b8054838901850152879450869390920191810161172d565b50346101f45760203660031901126101f45761177661185b565b61177e611bfe565b6001600160a01b03169081156117aa57506000908152601860205260409020805460ff19166001179055005b60649060206040519162461bcd60e51b835282015260066024820152650737761703d360d41b6044820152fd5b82346101f45760203660031901126101f457359063ffffffff60e01b82168092036101f45760209163152a902d60e11b8114908115611818575b5015158152f35b6380ac58cd60e01b81149150811561184a575b8115611839575b5083611811565b6301ffc9a760e01b14905083611832565b635b5e139f60e01b8114915061182b565b600435906001600160a01b03821682036101f457565b602435906001600160a01b03821682036101f457565b60005b83811061189a5750506000910152565b818101518382015260200161188a565b906020916118c381518092818552858086019101611887565b601f01601f1916010190565b6004359060ff821682036101f457565b60609060031901126101f4576001600160a01b039060043582811681036101f4579160243590811681036101f4579060443590565b9060206003198301126101f45760043567ffffffffffffffff928382116101f457806023830112156101f45781600401359384116101f457602484830101116101f4576024019190565b6020810190811067ffffffffffffffff82111761197a57604052565b634e487b7160e01b600052604160045260246000fd5b6040810190811067ffffffffffffffff82111761197a57604052565b90601f8019910116810190811067ffffffffffffffff82111761197a57604052565b67ffffffffffffffff811161197a57601f01601f191660200190565b90600182811c92168015611a1a575b6020831014611a0457565b634e487b7160e01b600052602260045260246000fd5b91607f16916119f9565b6001600160a01b039182169290918315611bad57600092828452826020956002875260409684888820541696879133151580611b14575b509060027fddf252ad1be2c89b69c2b068fc378daa952ba7f163c4a11628f55a4df523b3ef9284611ae1575b858352600381528b8320805460010190558683525289812080546001600160a01b0319168517905580a41692838303611ac05750505050565b6064945051926364283d7b60e01b8452600484015260248301526044820152fd5b600087815260046020526040902080546001600160a01b0319169055848352600381528b83208054600019019055611a87565b91939450915080611b6c575b15611b3057859291879138611a5b565b878688611b4d576024915190637e27328960e01b82526004820152fd5b905163177e802f60e01b81523360048201526024810191909152604490fd5b503387148015611b91575b80611b205750858252600481523385898420541614611b20565b5086825260058152878220338352815260ff8883205416611b77565b604051633250574960e11b815260006004820152602490fd5b15611bcd57565b60405162461bcd60e51b815260206004820152600960248201526862616420706861736560b81b6044820152606490fd5b6008546001600160a01b03163303611c1257565b60405163118cdaa760e01b8152336004820152602490fd5b6000818152600260205260409020546001600160a01b0316908115611c4d575090565b60249060405190637e27328960e01b82526004820152fd5b909192833b611c76575b5050505050565b604051630a85bd0160e11b8082526001600160a01b039384166004830152938316602482015260448101919091526080606482015260209591909316939091908390611cc69060848301906118aa565b039285816000958187895af1849181611d70575b50611d3a575050503d600014611d32573d611cf4816119ce565b90611d0260405192836119ac565b81528091843d92013e5b80519283611d2d57604051633250574960e11b815260048101849052602490fd5b019050fd5b506060611d0c565b919450915063ffffffff60e01b1603611d5857503880808080611c6f565b60249060405190633250574960e11b82526004820152fd5b9091508681813d8311611dad575b611d8881836119ac565b81010312611da957516001600160e01b031981168103611da9579038611cda565b8480fd5b503d611d7e56fea164736f6c6343000817000a",
  "linkReferences": {},
  "deployedLinkReferences": {}
}