{
  "_format": "hh-sol-artifact-1",
  "contractName": "SwapMint",
  "sourceName": "contracts/SwapMint.sol",
  "abi": [
    {
      "inputs": [
        {
          "internalType": "address",
          "name": "router_",
          "type": "address"
        },
        {
          "internalType": "address",
          "name": "wNative_",
          "type": "address"
        },
        {
          "internalType": "address",
          "name": "token_",
          "type": "address"
        },
        {
          "internalType": "address",
          "name": "core_",
          "type": "address"
        },
        {
          "internalType": "address",
          "name": "treasury_",
          "type": "address"
        }
      ],
      "stateMutability": "nonpayable",
      "type": "constructor"
    },
    {
      "inputs": [],
      "name": "ReentrancyGuardReentrantCall",
      "type": "error"
    },
    {
      "inputs": [
        {
          "internalType": "address",
          "name": "token",
          "type": "address"
        }
      ],
      "name": "SafeERC20FailedOperation",
      "type": "error"
    },
    {
      "anonymous": false,
      "inputs": [
        {
          "indexed": true,
          "internalType": "address",
          "name": "buyer",
          "type": "address"
        },
        {
          "indexed": false,
          "internalType": "uint8",
          "name": "phase",
          "type": "uint8"
        },
        {
          "indexed": false,
          "internalType": "uint256",
          "name": "monIn",
          "type": "uint256"
        },
        {
          "indexed": false,
          "internalType": "uint256",
          "name": "tokenOut",
          "type": "uint256"
        }
      ],
      "name": "SwapMinted",
      "type": "event"
    },
    {
      "inputs": [],
      "name": "CORE",
      "outputs": [
        {
          "internalType": "contract INFTCore",
          "name": "",
          "type": "address"
        }
      ],
      "stateMutability": "view",
      "type": "function"
    },
    {
      "inputs": [],
      "name": "ROUTER",
      "outputs": [
        {
          "internalType": "address",
          "name": "",
          "type": "address"
        }
      ],
      "stateMutability": "view",
      "type": "function"
    },
    {
      "inputs": [],
      "name": "TOKEN",
      "outputs": [
        {
          "internalType": "contract IERC20",
          "name": "",
          "type": "address"
        }
      ],
      "stateMutability": "view",
      "type": "function"
    },
    {
      "inputs": [],
      "name": "WNATIVE",
      "outputs": [
        {
          "internalType": "address",
          "name": "",
          "type": "address"
        }
      ],
      "stateMutability": "view",
      "type": "function"
    },
    {
      "inputs": [
        {
          "internalType": "uint8",
          "name": "phaseId",
          "type": "uint8"
        },
        {
          "internalType": "uint16",
          "name": "slippageBps",
          "type": "uint16"
        },
        {
          "internalType": "uint256",
          "name": "tokenCost",
          "type": "uint256"
        },
        {
          "internalType": "bytes32[]",
          "name": "proof",
          "type": "bytes32[]"
        }
      ],
      "name": "buyAndMint",
      "outputs": [],
      "stateMutability": "payable",
      "type": "function"
    },
    {
      "inputs": [],
      "name": "owner",
      "outputs": [
        {
          "internalType": "address",
          "name": "",
          "type": "address"
        }
      ],
      "stateMutability": "view",
      "type": "function"
    },
    {
      "inputs": [
        {
          "internalType": "address",
          "name": "newOwner",
          "type": "address"
        }
      ],
      "name": "setOwner",
      "outputs": [],
      "stateMutability": "nonpayable",
      "type": "function"
    },
    {
      "inputs": [
        {
          "internalType": "address",
          "name": "to",
          "type": "address"
        }
      ],
      "name": "withdrawTokens",
      "outputs": [],
      "stateMutability": "nonpayable",
      "type": "function"
    },
    {
      "stateMutability": "payable",
      "type": "receive"
    }
  ],
  "bytecode": "0x61010034620001d257601f62000e6b38819003918201601f19168301916001600160401b03831184841017620001d75780849260a094604052833981010312620001d2576200004e81620001ed565b6200005c60208301620001ed565b6200006a60408401620001ed565b926200008760806200007f60608401620001ed565b9201620001ed565b60016000556001600160a01b0394909390858216151580620001c6575b80620001ba575b80620001ae575b80620001a2575b1562000177578593849260805260a0521660c0521660e0521660018060a01b03196001541617600155604051610c689081620002038239608051818181610341015281816103cb015281816104ac015281816106ae0152610a1b015260a05181818160940152818161020d01528181610250015281816102c10152818161041a0152818161070701528181610736015261078a015260c051818181610105015281816102e90152610928015260e05181818161014a01526105670152f35b606460405162461bcd60e51b81526020600482015260046024820152637a65726f60e01b6044820152fd5b508585161515620000b9565b508583161515620000b2565b508581161515620000ab565b508584161515620000a4565b600080fd5b634e487b7160e01b600052604160045260246000fd5b51906001600160a01b0382168203620001d25756fe6080604052600436101561001b575b361561001957600080fd5b005b6000803560e01c806313af403514610a4a57806332fe7b2614610a0557806349df728c146108ed57806358d47741146101795780636b6c07741461013457806382bfefc8146100ef5780638da5cb5b146100c65763b381cf401461007f575061000e565b346100c357806003193601126100c3576040517f00000000000000000000000000000000000000000000000000000000000000006001600160a01b03168152602090f35b80fd5b50346100c357806003193601126100c3576001546040516001600160a01b039091168152602090f35b50346100c357806003193601126100c3576040517f00000000000000000000000000000000000000000000000000000000000000006001600160a01b03168152602090f35b50346100c357806003193601126100c3576040517f00000000000000000000000000000000000000000000000000000000000000006001600160a01b03168152602090f35b5060803660031901126100c35760043560ff811681036108e95760243561ffff811681036108755767ffffffffffffffff60643511610875573660236064350112156108755767ffffffffffffffff6064356004013511610875573660246064356004013560051b6064350101116108755760028354146108d757600283556103e861ffff8216116108a7573415610879577f00000000000000000000000000000000000000000000000000000000000000006001600160a01b03163b1561087557604051630d0e30db60e41b81528381600481347f00000000000000000000000000000000000000000000000000000000000000006001600160a01b03165af1801561061857610845575b50604051906060820182811067ffffffffffffffff82111761076a5760405260028252604036602084013781511561082f576001600160a01b037f0000000000000000000000000000000000000000000000000000000000000000811660208401527f00000000000000000000000000000000000000000000000000000000000000001661031283610b2a565b5260405163d06ca61f60e01b81523460048201526040602482015284818061033d6044820187610bb6565b03817f00000000000000000000000000000000000000000000000000000000000000006001600160a01b03165afa80156108245761038291869161080a575b50610b2a565b5161ffff6127109216820361ffff81116107f65761ffff169081810291818304149015171561068857604435828204106107c55760405163095ea7b360e01b60208083018281527f00000000000000000000000000000000000000000000000000000000000000006001600160a01b031660248501523460448086019190915284529192918890610414606485610b08565b835190827f00000000000000000000000000000000000000000000000000000000000000006001600160a01b03165af187513d82610780575b50501561069c575b505061012c420142116106885790849161049760405194859384936338ed173960e01b855234600486015204602484015260a0604484015260a4830190610bb6565b3060648301524261012c0160848301520381837f00000000000000000000000000000000000000000000000000000000000000006001600160a01b03165af190811561067d57839161065b575b506044356104f182610b2a565b511061062757604051638c3aedcb60e01b815260ff83166004808301919091523360248301526060604483015260648035909101359082018190526001600160fb1b0310610623576064356004013560051b60246064350160848301376020816004606435013560051b810181900360840181877f00000000000000000000000000000000000000000000000000000000000000006001600160a01b03165af18015610618576105e8575b506105a690610b2a565b5160ff6040519216825234602083015260408201527f5d1f673071e3192aee4f021b74268e07aa7b15b643880e5d3a21f5bdf2d8ef6960603392a26001815580f35b602090813d8311610611575b6105fe8183610b08565b8101031261060c573861059c565b600080fd5b503d6105f4565b6040513d86823e3d90fd5b8380fd5b60405162461bcd60e51b815260206004820152600c60248201526b62616420736c69707061676560a01b6044820152606490fd5b61067791503d8085833e61066f8183610b08565b810190610b3a565b386104e4565b6040513d85823e3d90fd5b634e487b7160e01b85526011600452602485fd5b60405191602083015260018060a01b037f00000000000000000000000000000000000000000000000000000000000000001660248301528660448301526044825281608081011067ffffffffffffffff60808401111761076a576080820160405261076391610734907f00000000000000000000000000000000000000000000000000000000000000006001600160a01b0316610bf3565b7f00000000000000000000000000000000000000000000000000000000000000006001600160a01b0316610bf3565b3880610455565b634e487b7160e01b600052604160045260246000fd5b9091506107bd57507f00000000000000000000000000000000000000000000000000000000000000006001600160a01b03163b15155b388061044d565b6001146107b6565b60405162461bcd60e51b81526020600482015260096024820152681cddd85c0f18dbdcdd60ba1b6044820152606490fd5b634e487b7160e01b86526011600452602486fd5b61081e91503d8088833e61066f8183610b08565b3861037c565b6040513d87823e3d90fd5b634e487b7160e01b600052603260045260246000fd5b67ffffffffffffffff8194929411610861576040529138610285565b634e487b7160e01b82526041600452602482fd5b8280fd5b60405162461bcd60e51b815260206004820152600660248201526537379026a7a760d11b6044820152606490fd5b60405162461bcd60e51b8152602060048201526008602482015267736c69703e31302560c01b6044820152606490fd5b604051633ee5aeb560e01b8152600490fd5b5080fd5b50346100c3576020806003193601126108e9576004356001600160a01b0380821682036106235761092381600154163314610a9e565b6024837f000000000000000000000000000000000000000000000000000000000000000092604051928380926370a0823160e01b825230600483015286165afa9081156108245785916109d2575b506109cf936109bc826109886109ca941515610ad6565b60405163a9059cbb60e01b938101939093526001600160a01b03909516602483015260448201949094529283906064820190565b03601f198101845283610b08565b610bf3565b80f35b90508381813d83116109fe575b6109e98183610b08565b810103126109fa57516109cf610971565b8480fd5b503d6109df565b50346100c357806003193601126100c3576040517f00000000000000000000000000000000000000000000000000000000000000006001600160a01b03168152602090f35b50346100c35760203660031901126100c3576004356001600160a01b038181169182900361087557610a826001549182163314610a9e565b610a8d821515610ad6565b6001600160a01b0319161760015580f35b15610aa557565b60405162461bcd60e51b81526020600482015260096024820152683737ba1037bbb732b960b91b6044820152606490fd5b15610add57565b606460405162461bcd60e51b81526020600482015260046024820152637a65726f60e01b6044820152fd5b90601f8019910116810190811067ffffffffffffffff82111761076a57604052565b80516001101561082f5760400190565b90602090818382031261060c57825167ffffffffffffffff9384821161060c570181601f8201121561060c57805193841161076a578360051b9060405194610b8485840187610b08565b8552838086019282010192831161060c578301905b828210610ba7575050505090565b81518152908301908301610b99565b90815180825260208080930193019160005b828110610bd6575050505090565b83516001600160a01b031685529381019392810192600101610bc8565b906000602091828151910182855af115610c4f576000513d610c4657506001600160a01b0381163b155b610c245750565b604051635274afe760e01b81526001600160a01b039091166004820152602490fd5b60011415610c1d565b6040513d6000823e3d90fdfea164736f6c6343000817000a",
  "linkReferences": {},
  "deployedLinkReferences": {}
}